{
  "_format": "hh-sol-artifact-1",
  "contractName": "TokenMaster",
  "sourceName": "contracts/TokenMaster.sol",
  "abi": [
    {
      "inputs": [
        {
          "internalType": "string",
          "name": "_name",
          "type": "string"
        },
        {
          "internalType": "string",
          "name": "_symbol",
          "type": "string"
        }
      ],
      "stateMutability": "nonpayable",
      "type": "constructor"
    },
    {
      "anonymous": false,
      "inputs": [
        {
          "indexed": true,
          "internalType": "address",
          "name": "owner",
          "type": "address"
        },
        {
          "indexed": true,
          "internalType": "address",
          "name": "approved",
          "type": "address"
        },
        {
          "indexed": true,
          "internalType": "uint256",
          "name": "tokenId",
          "type": "uint256"
        }
      ],
      "name": "Approval",
      "type": "event"
    },
    {
      "anonymous": false,
      "inputs": [
        {
          "indexed": true,
          "internalType": "address",
          "name": "owner",
          "type": "address"
        },
        {
          "indexed": true,
          "internalType": "address",
          "name": "operator",
          "type": "address"
        },
        {
          "indexed": false,
          "internalType": "bool",
          "name": "approved",
          "type": "bool"
        }
      ],
      "name": "ApprovalForAll",
      "type": "event"
    },
    {
      "anonymous": false,
      "inputs": [
        {
          "indexed": true,
          "internalType": "uint256",
          "name": "id",
          "type": "uint256"
        },
        {
          "indexed": false,
          "internalType": "string",
          "name": "name",
          "type": "string"
        },
        {
          "indexed": false,
          "internalType": "uint256",
          "name": "cost",
          "type": "uint256"
        },
        {
          "indexed": false,
          "internalType": "uint256",
          "name": "maxTickets",
          "type": "uint256"
        },
        {
          "indexed": false,
          "internalType": "string",
          "name": "date",
          "type": "string"
        },
        {
          "indexed": false,
          "internalType": "string",
          "name": "time",
          "type": "string"
        },
        {
          "indexed": false,
          "internalType": "string",
          "name": "location",
          "type": "string"
        }
      ],
      "name": "OccasionListed",
      "type": "event"
    },
    {
      "anonymous": false,
      "inputs": [
        {
          "indexed": true,
          "internalType": "address",
          "name": "previousOwner",
          "type": "address"
        },
        {
          "indexed": true,
          "internalType": "address",
          "name": "newOwner",
          "type": "address"
        }
      ],
      "name": "OwnershipTransferred",
      "type": "event"
    },
    {
      "anonymous": false,
      "inputs": [
        {
          "indexed": true,
          "internalType": "uint256",
          "name": "occasionId",
          "type": "uint256"
        },
        {
          "indexed": true,
          "internalType": "address",
          "name": "buyer",
          "type": "address"
        },
        {
          "indexed": false,
          "internalType": "uint256",
          "name": "seat",
          "type": "uint256"
        }
      ],
      "name": "TicketMinted",
      "type": "event"
    },
    {
      "anonymous": false,
      "inputs": [
        {
          "indexed": true,
          "internalType": "address",
          "name": "from",
          "type": "address"
        },
        {
          "indexed": true,
          "internalType": "address",
          "name": "to",
          "type": "address"
        },
        {
          "indexed": true,
          "internalType": "uint256",
          "name": "tokenId",
          "type": "uint256"
        }
      ],
      "name": "Transfer",
      "type": "event"
    },
    {
      "inputs": [
        {
          "internalType": "address",
          "name": "to",
          "type": "address"
        },
        {
          "internalType": "uint256",
          "name": "tokenId",
          "type": "uint256"
        }
      ],
      "name": "approve",
      "outputs": [],
      "stateMutability": "nonpayable",
      "type": "function"
    },
    {
      "inputs": [
        {
          "internalType": "address",
          "name": "owner",
          "type": "address"
        }
      ],
      "name": "balanceOf",
      "outputs": [
        {
          "internalType": "uint256",
          "name": "",
          "type": "uint256"
        }
      ],
      "stateMutability": "view",
      "type": "function"
    },
    {
      "inputs": [
        {
          "internalType": "uint256",
          "name": "tokenId",
          "type": "uint256"
        }
      ],
      "name": "getApproved",
      "outputs": [
        {
          "internalType": "address",
          "name": "",
          "type": "address"
        }
      ],
      "stateMutability": "view",
      "type": "function"
    },
    {
      "inputs": [
        {
          "internalType": "uint256",
          "name": "_id",
          "type": "uint256"
        }
      ],
      "name": "getOccasion",
      "outputs": [
        {
          "components": [
            {
              "internalType": "uint256",
              "name": "id",
              "type": "uint256"
            },
            {
              "internalType": "string",
              "name": "name",
              "type": "string"
            },
            {
              "internalType": "uint256",
              "name": "cost",
              "type": "uint256"
            },
            {
              "internalType": "uint256",
              "name": "tickets",
              "type": "uint256"
            },
            {
              "internalType": "uint256",
              "name": "maxTickets",
              "type": "uint256"
            },
            {
              "internalType": "string",
              "name": "date",
              "type": "string"
            },
            {
              "internalType": "string",
              "name": "time",
              "type": "string"
            },
            {
              "internalType": "string",
              "name": "location",
              "type": "string"
            }
          ],
          "internalType": "struct TokenMaster.Occasion",
          "name": "",
          "type": "tuple"
        }
      ],
      "stateMutability": "view",
      "type": "function"
    },
    {
      "inputs": [
        {
          "internalType": "uint256",
          "name": "_id",
          "type": "uint256"
        }
      ],
      "name": "getSeatsTaken",
      "outputs": [
        {
          "internalType": "uint256[]",
          "name": "",
          "type": "uint256[]"
        }
      ],
      "stateMutability": "view",
      "type": "function"
    },
    {
      "inputs": [
        {
          "internalType": "uint256",
          "name": "",
          "type": "uint256"
        },
        {
          "internalType": "address",
          "name": "",
          "type": "address"
        }
      ],
      "name": "hasBought",
      "outputs": [
        {
          "internalType": "bool",
          "name": "",
          "type": "bool"
        }
      ],
      "stateMutability": "view",
      "type": "function"
    },
    {
      "inputs": [
        {
          "internalType": "address",
          "name": "owner",
          "type": "address"
        },
        {
          "internalType": "address",
          "name": "operator",
          "type": "address"
        }
      ],
      "name": "isApprovedForAll",
      "outputs": [
        {
          "internalType": "bool",
          "name": "",
          "type": "bool"
        }
      ],
      "stateMutability": "view",
      "type": "function"
    },
    {
      "inputs": [
        {
          "internalType": "string",
          "name": "_name",
          "type": "string"
        },
        {
          "internalType": "uint256",
          "name": "_cost",
          "type": "uint256"
        },
        {
          "internalType": "uint256",
          "name": "_maxTickets",
          "type": "uint256"
        },
        {
          "internalType": "string",
          "name": "_date",
          "type": "string"
        },
        {
          "internalType": "string",
          "name": "_time",
          "type": "string"
        },
        {
          "internalType": "string",
          "name": "_location",
          "type": "string"
        }
      ],
      "name": "list",
      "outputs": [],
      "stateMutability": "nonpayable",
      "type": "function"
    },
    {
      "inputs": [
        {
          "internalType": "uint256",
          "name": "_id",
          "type": "uint256"
        },
        {
          "internalType": "uint256",
          "name": "_seat",
          "type": "uint256"
        }
      ],
      "name": "mint",
      "outputs": [],
      "stateMutability": "payable",
      "type": "function"
    },
    {
      "inputs": [],
      "name": "name",
      "outputs": [
        {
          "internalType": "string",
          "name": "",
          "type": "string"
        }
      ],
      "stateMutability": "view",
      "type": "function"
    },
    {
      "inputs": [
        {
          "internalType": "uint256",
          "name": "",
          "type": "uint256"
        }
      ],
      "name": "occasions",
      "outputs": [
        {
          "internalType": "uint256",
          "name": "id",
          "type": "uint256"
        },
        {
          "internalType": "string",
          "name": "name",
          "type": "string"
        },
        {
          "internalType": "uint256",
          "name": "cost",
          "type": "uint256"
        },
        {
          "internalType": "uint256",
          "name": "tickets",
          "type": "uint256"
        },
        {
          "internalType": "uint256",
          "name": "maxTickets",
          "type": "uint256"
        },
        {
          "internalType": "string",
          "name": "date",
          "type": "string"
        },
        {
          "internalType": "string",
          "name": "time",
          "type": "string"
        },
        {
          "internalType": "string",
          "name": "location",
          "type": "string"
        }
      ],
      "stateMutability": "view",
      "type": "function"
    },
    {
      "inputs": [],
      "name": "owner",
      "outputs": [
        {
          "internalType": "address",
          "name": "",
          "type": "address"
        }
      ],
      "stateMutability": "view",
      "type": "function"
    },
    {
      "inputs": [
        {
          "internalType": "uint256",
          "name": "tokenId",
          "type": "uint256"
        }
      ],
      "name": "ownerOf",
      "outputs": [
        {
          "internalType": "address",
          "name": "",
          "type": "address"
        }
      ],
      "stateMutability": "view",
      "type": "function"
    },
    {
      "inputs": [],
      "name": "renounceOwnership",
      "outputs": [],
      "stateMutability": "nonpayable",
      "type": "function"
    },
    {
      "inputs": [
        {
          "internalType": "address",
          "name": "from",
          "type": "address"
        },
        {
          "internalType": "address",
          "name": "to",
          "type": "address"
        },
        {
          "internalType": "uint256",
          "name": "tokenId",
          "type": "uint256"
        }
      ],
      "name": "safeTransferFrom",
      "outputs": [],
      "stateMutability": "nonpayable",
      "type": "function"
    },
    {
      "inputs": [
        {
          "internalType": "address",
          "name": "from",
          "type": "address"
        },
        {
          "internalType": "address",
          "name": "to",
          "type": "address"
        },
        {
          "internalType": "uint256",
          "name": "tokenId",
          "type": "uint256"
        },
        {
          "internalType": "bytes",
          "name": "data",
          "type": "bytes"
        }
      ],
      "name": "safeTransferFrom",
      "outputs": [],
      "stateMutability": "nonpayable",
      "type": "function"
    },
    {
      "inputs": [
        {
          "internalType": "uint256",
          "name": "",
          "type": "uint256"
        },
        {
          "internalType": "uint256",
          "name": "",
          "type": "uint256"
        }
      ],
      "name": "seatTaken",
      "outputs": [
        {
          "internalType": "address",
          "name": "",
          "type": "address"
        }
      ],
      "stateMutability": "view",
      "type": "function"
    },
    {
      "inputs": [
        {
          "internalType": "address",
          "name": "operator",
          "type": "address"
        },
        {
          "internalType": "bool",
          "name": "approved",
          "type": "bool"
        }
      ],
      "name": "setApprovalForAll",
      "outputs": [],
      "stateMutability": "nonpayable",
      "type": "function"
    },
    {
      "inputs": [
        {
          "internalType": "bytes4",
          "name": "interfaceId",
          "type": "bytes4"
        }
      ],
      "name": "supportsInterface",
      "outputs": [
        {
          "internalType": "bool",
          "name": "",
          "type": "bool"
        }
      ],
      "stateMutability": "view",
      "type": "function"
    },
    {
      "inputs": [],
      "name": "symbol",
      "outputs": [
        {
          "internalType": "string",
          "name": "",
          "type": "string"
        }
      ],
      "stateMutability": "view",
      "type": "function"
    },
    {
      "inputs": [
        {
          "internalType": "uint256",
          "name": "tokenId",
          "type": "uint256"
        }
      ],
      "name": "tokenURI",
      "outputs": [
        {
          "internalType": "string",
          "name": "",
          "type": "string"
        }
      ],
      "stateMutability": "view",
      "type": "function"
    },
    {
      "inputs": [],
      "name": "totalOccasions",
      "outputs": [
        {
          "internalType": "uint256",
          "name": "",
          "type": "uint256"
        }
      ],
      "stateMutability": "view",
      "type": "function"
    },
    {
      "inputs": [],
      "name": "totalSupply",
      "outputs": [
        {
          "internalType": "uint256",
          "name": "",
          "type": "uint256"
        }
      ],
      "stateMutability": "view",
      "type": "function"
    },
    {
      "inputs": [
        {
          "internalType": "address",
          "name": "from",
          "type": "address"
        },
        {
          "internalType": "address",
          "name": "to",
          "type": "address"
        },
        {
          "internalType": "uint256",
          "name": "tokenId",
          "type": "uint256"
        }
      ],
      "name": "transferFrom",
      "outputs": [],
      "stateMutability": "nonpayable",
      "type": "function"
    },
    {
      "inputs": [
        {
          "internalType": "address",
          "name": "newOwner",
          "type": "address"
        }
      ],
      "name": "transferOwnership",
      "outputs": [],
      "stateMutability": "nonpayable",
      "type": "function"
    },
    {
      "inputs": [],
      "name": "withdraw",
      "outputs": [],
      "stateMutability": "nonpayable",
      "type": "function"
    }
  ],
  "bytecode": "0x60806040523480156200001157600080fd5b5060405162004acf38038062004acf83398181016040528101906200003791906200044a565b818181600090816200004a91906200071a565b5080600190816200005c91906200071a565b5050506200007f620000736200009860201b60201c565b620000a060201b60201c565b62000090336200016660201b60201c565b50506200091c565b600033905090565b6000600660009054906101000a900473ffffffffffffffffffffffffffffffffffffffff16905081600660006101000a81548173ffffffffffffffffffffffffffffffffffffffff021916908373ffffffffffffffffffffffffffffffffffffffff1602179055508173ffffffffffffffffffffffffffffffffffffffff168173ffffffffffffffffffffffffffffffffffffffff167f8be0079c531659141344cd1fd0a4f28419497f9722a3daafe3b4186f6b6457e060405160405180910390a35050565b62000176620001fc60201b60201c565b600073ffffffffffffffffffffffffffffffffffffffff168173ffffffffffffffffffffffffffffffffffffffff1603620001e8576040517f08c379a0000000000000000000000000000000000000000000000000000000008152600401620001df9062000888565b60405180910390fd5b620001f981620000a060201b60201c565b50565b6200020c6200009860201b60201c565b73ffffffffffffffffffffffffffffffffffffffff16620002326200028d60201b60201c565b73ffffffffffffffffffffffffffffffffffffffff16146200028b576040517f08c379a00000000000000000000000000000000000000000000000000000000081526004016200028290620008fa565b60405180910390fd5b565b6000600660009054906101000a900473ffffffffffffffffffffffffffffffffffffffff16905090565b6000604051905090565b600080fd5b600080fd5b600080fd5b600080fd5b6000601f19601f8301169050919050565b7f4e487b7100000000000000000000000000000000000000000000000000000000600052604160045260246000fd5b6200032082620002d5565b810181811067ffffffffffffffff82111715620003425762000341620002e6565b5b80604052505050565b600062000357620002b7565b905062000365828262000315565b919050565b600067ffffffffffffffff821115620003885762000387620002e6565b5b6200039382620002d5565b9050602081019050919050565b60005b83811015620003c0578082015181840152602081019050620003a3565b60008484015250505050565b6000620003e3620003dd846200036a565b6200034b565b905082815260208101848484011115620004025762000401620002d0565b5b6200040f848285620003a0565b509392505050565b600082601f8301126200042f576200042e620002cb565b5b815162000441848260208601620003cc565b91505092915050565b60008060408385031215620004645762000463620002c1565b5b600083015167ffffffffffffffff811115620004855762000484620002c6565b5b620004938582860162000417565b925050602083015167ffffffffffffffff811115620004b757620004b6620002c6565b5b620004c58582860162000417565b9150509250929050565b600081519050919050565b7f4e487b7100000000000000000000000000000000000000000000000000000000600052602260045260246000fd5b600060028204905060018216806200052257607f821691505b602082108103620005385762000537620004da565b5b50919050565b60008190508160005260206000209050919050565b60006020601f8301049050919050565b600082821b905092915050565b600060088302620005a27fffffffffffffffffffffffffffffffffffffffffffffffffffffffffffffffff8262000563565b620005ae868362000563565b95508019841693508086168417925050509392505050565b6000819050919050565b6000819050919050565b6000620005fb620005f5620005ef84620005c6565b620005d0565b620005c6565b9050919050565b6000819050919050565b6200061783620005da565b6200062f620006268262000602565b84845462000570565b825550505050565b600090565b6200064662000637565b620006538184846200060c565b505050565b5b818110156200067b576200066f6000826200063c565b60018101905062000659565b5050565b601f821115620006ca5762000694816200053e565b6200069f8462000553565b81016020851015620006af578190505b620006c7620006be8562000553565b83018262000658565b50505b505050565b600082821c905092915050565b6000620006ef60001984600802620006cf565b1980831691505092915050565b60006200070a8383620006dc565b9150826002028217905092915050565b6200072582620004cf565b67ffffffffffffffff811115620007415762000740620002e6565b5b6200074d825462000509565b6200075a8282856200067f565b600060209050601f8311600181146200079257600084156200077d578287015190505b620007898582620006fc565b865550620007f9565b601f198416620007a2866200053e565b60005b82811015620007cc57848901518255600182019150602085019450602081019050620007a5565b86831015620007ec5784890151620007e8601f891682620006dc565b8355505b6001600288020188555050505b505050505050565b600082825260208201905092915050565b7f4f776e61626c653a206e6577206f776e657220697320746865207a65726f206160008201527f6464726573730000000000000000000000000000000000000000000000000000602082015250565b60006200087060268362000801565b91506200087d8262000812565b604082019050919050565b60006020820190508181036000830152620008a38162000861565b9050919050565b7f4f776e61626c653a2063616c6c6572206973206e6f7420746865206f776e6572600082015250565b6000620008e260208362000801565b9150620008ef82620008aa565b602082019050919050565b600060208201905081810360008301526200091581620008d3565b9050919050565b6141a3806200092c6000396000f3fe6080604052600436106101815760003560e01c8063715018a6116100d15780639cb04aef1161008a578063b88d4fde11610064578063b88d4fde146105a0578063c87b56dd146105c9578063e985e9c514610606578063f2fde38b1461064357610181565b80639cb04aef146104fd578063a22cb4651461053a578063af296da11461056357610181565b8063715018a6146103ff57806374bc8656146104165780638da5cb5b14610453578063953865c11461047e57806395d89b41146104a95780639a382f0f146104d457610181565b80631b2ef1ca1161013e57806342842e0e1161011857806342842e0e1461031857806361a5672d146103415780636352211e1461038557806370a08231146103c257610181565b80631b2ef1ca146102bc57806323b872dd146102d85780633ccfd60b1461030157610181565b806301ffc9a71461018657806306fdde03146101c3578063081812fc146101ee578063095ea7b31461022b5780630ef7ec741461025457806318160ddd14610291575b600080fd5b34801561019257600080fd5b506101ad60048036038101906101a891906128d0565b61066c565b6040516101ba9190612918565b60405180910390f35b3480156101cf57600080fd5b506101d861074e565b6040516101e591906129c3565b60405180910390f35b3480156101fa57600080fd5b5061021560048036038101906102109190612a1b565b6107e0565b6040516102229190612a89565b60405180910390f35b34801561023757600080fd5b50610252600480360381019061024d9190612ad0565b610826565b005b34801561026057600080fd5b5061027b60048036038101906102769190612a1b565b61093d565b6040516102889190612bce565b60405180910390f35b34801561029d57600080fd5b506102a66109a8565b6040516102b39190612bff565b60405180910390f35b6102d660048036038101906102d19190612c1a565b6109ae565b005b3480156102e457600080fd5b506102ff60048036038101906102fa9190612c5a565b610d0e565b005b34801561030d57600080fd5b50610316610d6e565b005b34801561032457600080fd5b5061033f600480360381019061033a9190612c5a565b610e2c565b005b34801561034d57600080fd5b5061036860048036038101906103639190612a1b565b610e4c565b60405161037c989796959493929190612cad565b60405180910390f35b34801561039157600080fd5b506103ac60048036038101906103a79190612a1b565b6110b4565b6040516103b99190612a89565b60405180910390f35b3480156103ce57600080fd5b506103e960048036038101906103e49190612d47565b61113a565b6040516103f69190612bff565b60405180910390f35b34801561040b57600080fd5b506104146111f1565b005b34801561042257600080fd5b5061043d60048036038101906104389190612a1b565b611205565b60405161044a9190612e83565b60405180910390f35b34801561045f57600080fd5b506104686114a3565b6040516104759190612a89565b60405180910390f35b34801561048a57600080fd5b506104936114cd565b6040516104a09190612bff565b60405180910390f35b3480156104b557600080fd5b506104be6114d3565b6040516104cb91906129c3565b60405180910390f35b3480156104e057600080fd5b506104fb60048036038101906104f69190612fda565b611565565b005b34801561050957600080fd5b50610524600480360381019061051f91906130d7565b6116a5565b6040516105319190612918565b60405180910390f35b34801561054657600080fd5b50610561600480360381019061055c9190613143565b6116d4565b005b34801561056f57600080fd5b5061058a60048036038101906105859190612c1a565b6116ea565b6040516105979190612a89565b60405180910390f35b3480156105ac57600080fd5b506105c760048036038101906105c29190613224565b61172c565b005b3480156105d557600080fd5b506105f060048036038101906105eb9190612a1b565b61178e565b6040516105fd91906129c3565b60405180910390f35b34801561061257600080fd5b5061062d600480360381019061062891906132a7565b6117f6565b60405161063a9190612918565b60405180910390f35b34801561064f57600080fd5b5061066a60048036038101906106659190612d47565b61188a565b005b60007f80ac58cd000000000000000000000000000000000000000000000000000000007bffffffffffffffffffffffffffffffffffffffffffffffffffffffff1916827bffffffffffffffffffffffffffffffffffffffffffffffffffffffff1916148061073757507f5b5e139f000000000000000000000000000000000000000000000000000000007bffffffffffffffffffffffffffffffffffffffffffffffffffffffff1916827bffffffffffffffffffffffffffffffffffffffffffffffffffffffff1916145b8061074757506107468261190d565b5b9050919050565b60606000805461075d90613316565b80601f016020809104026020016040519081016040528092919081815260200182805461078990613316565b80156107d65780601f106107ab576101008083540402835291602001916107d6565b820191906000526020600020905b8154815290600101906020018083116107b957829003601f168201915b5050505050905090565b60006107eb82611977565b6004600083815260200190815260200160002060009054906101000a900473ffffffffffffffffffffffffffffffffffffffff169050919050565b6000610831826110b4565b90508073ffffffffffffffffffffffffffffffffffffffff168373ffffffffffffffffffffffffffffffffffffffff16036108a1576040517f08c379a0000000000000000000000000000000000000000000000000000000008152600401610898906133b9565b60405180910390fd5b8073ffffffffffffffffffffffffffffffffffffffff166108c06119c2565b73ffffffffffffffffffffffffffffffffffffffff1614806108ef57506108ee816108e96119c2565b6117f6565b5b61092e576040517f08c379a00000000000000000000000000000000000000000000000000000000081526004016109259061344b565b60405180910390fd5b61093883836119ca565b505050565b6060600c600083815260200190815260200160002080548060200260200160405190810160405280929190818152602001828054801561099c57602002820191906000526020600020905b815481526020019060010190808311610988575b50505050509050919050565b60085481565b60075482106109f2576040517f08c379a00000000000000000000000000000000000000000000000000000000081526004016109e9906134b7565b60405180910390fd5b6009600083815260200190815260200160002060020154341015610a4b576040517f08c379a0000000000000000000000000000000000000000000000000000000008152600401610a4290613523565b60405180910390fd5b600073ffffffffffffffffffffffffffffffffffffffff16600b6000848152602001908152602001600020600083815260200190815260200160002060009054906101000a900473ffffffffffffffffffffffffffffffffffffffff1673ffffffffffffffffffffffffffffffffffffffff1614610afe576040517f08c379a0000000000000000000000000000000000000000000000000000000008152600401610af59061358f565b60405180910390fd5b600081118015610b24575060096000838152602001908152602001600020600401548111155b610b63576040517f08c379a0000000000000000000000000000000000000000000000000000000008152600401610b5a906135fb565b60405180910390fd5b6001600960008481526020019081526020016000206003016000828254610b8a919061364a565b925050819055506001600a600084815260200190815260200160002060003373ffffffffffffffffffffffffffffffffffffffff1673ffffffffffffffffffffffffffffffffffffffff16815260200190815260200160002060006101000a81548160ff02191690831515021790555033600b6000848152602001908152602001600020600083815260200190815260200160002060006101000a81548173ffffffffffffffffffffffffffffffffffffffff021916908373ffffffffffffffffffffffffffffffffffffffff160217905550600c600083815260200190815260200160002081908060018154018082558091505060019003906000526020600020016000909190919091505560086000815480929190610caa9061367e565b9190505550610cbb33600854611a83565b3373ffffffffffffffffffffffffffffffffffffffff16827f5c1c9352d51031acc9a558d7cdcca15b0ce5fe4f46d7315cca355248175b0a3783604051610d029190612bff565b60405180910390a35050565b610d1f610d196119c2565b82611aa1565b610d5e576040517f08c379a0000000000000000000000000000000000000000000000000000000008152600401610d5590613738565b60405180910390fd5b610d69838383611b36565b505050565b610d76611e2f565b6000610d806114a3565b73ffffffffffffffffffffffffffffffffffffffff1647604051610da390613789565b60006040518083038185875af1925050503d8060008114610de0576040519150601f19603f3d011682016040523d82523d6000602084013e610de5565b606091505b5050905080610e29576040517f08c379a0000000000000000000000000000000000000000000000000000000008152600401610e20906137ea565b60405180910390fd5b50565b610e478383836040518060200160405280600081525061172c565b505050565b6009602052806000526040600020600091509050806000015490806001018054610e7590613316565b80601f0160208091040260200160405190810160405280929190818152602001828054610ea190613316565b8015610eee5780601f10610ec357610100808354040283529160200191610eee565b820191906000526020600020905b815481529060010190602001808311610ed157829003601f168201915b505050505090806002015490806003015490806004015490806005018054610f1590613316565b80601f0160208091040260200160405190810160405280929190818152602001828054610f4190613316565b8015610f8e5780601f10610f6357610100808354040283529160200191610f8e565b820191906000526020600020905b815481529060010190602001808311610f7157829003601f168201915b505050505090806006018054610fa390613316565b80601f0160208091040260200160405190810160405280929190818152602001828054610fcf90613316565b801561101c5780601f10610ff15761010080835404028352916020019161101c565b820191906000526020600020905b815481529060010190602001808311610fff57829003601f168201915b50505050509080600701805461103190613316565b80601f016020809104026020016040519081016040528092919081815260200182805461105d90613316565b80156110aa5780601f1061107f576101008083540402835291602001916110aa565b820191906000526020600020905b81548152906001019060200180831161108d57829003601f168201915b5050505050905088565b6000806110c083611ead565b9050600073ffffffffffffffffffffffffffffffffffffffff168173ffffffffffffffffffffffffffffffffffffffff1603611131576040517f08c379a000000000000000000000000000000000000000000000000000000000815260040161112890613856565b60405180910390fd5b80915050919050565b60008073ffffffffffffffffffffffffffffffffffffffff168273ffffffffffffffffffffffffffffffffffffffff16036111aa576040517f08c379a00000000000000000000000000000000000000000000000000000000081526004016111a1906138e8565b60405180910390fd5b600360008373ffffffffffffffffffffffffffffffffffffffff1673ffffffffffffffffffffffffffffffffffffffff168152602001908152602001600020549050919050565b6111f9611e2f565b6112036000611eea565b565b61120d61281f565b60096000838152602001908152602001600020604051806101000160405290816000820154815260200160018201805461124690613316565b80601f016020809104026020016040519081016040528092919081815260200182805461127290613316565b80156112bf5780601f10611294576101008083540402835291602001916112bf565b820191906000526020600020905b8154815290600101906020018083116112a257829003601f168201915b505050505081526020016002820154815260200160038201548152602001600482015481526020016005820180546112f690613316565b80601f016020809104026020016040519081016040528092919081815260200182805461132290613316565b801561136f5780601f106113445761010080835404028352916020019161136f565b820191906000526020600020905b81548152906001019060200180831161135257829003601f168201915b5050505050815260200160068201805461138890613316565b80601f01602080910402602001604051908101604052809291908181526020018280546113b490613316565b80156114015780601f106113d657610100808354040283529160200191611401565b820191906000526020600020905b8154815290600101906020018083116113e457829003601f168201915b5050505050815260200160078201805461141a90613316565b80601f016020809104026020016040519081016040528092919081815260200182805461144690613316565b80156114935780601f1061146857610100808354040283529160200191611493565b820191906000526020600020905b81548152906001019060200180831161147657829003601f168201915b5050505050815250509050919050565b6000600660009054906101000a900473ffffffffffffffffffffffffffffffffffffffff16905090565b60075481565b6060600180546114e290613316565b80601f016020809104026020016040519081016040528092919081815260200182805461150e90613316565b801561155b5780601f106115305761010080835404028352916020019161155b565b820191906000526020600020905b81548152906001019060200180831161153e57829003601f168201915b5050505050905090565b61156d611e2f565b6040518061010001604052806007548152602001878152602001868152602001858152602001858152602001848152602001838152602001828152506009600060075481526020019081526020016000206000820151816000015560208201518160010190816115dd9190613ab4565b5060408201518160020155606082015181600301556080820151816004015560a08201518160050190816116119190613ab4565b5060c08201518160060190816116279190613ab4565b5060e082015181600701908161163d9190613ab4565b509050506007547f82529580891f89fbb758c5829f110215ad1c5fe97680d7434a04d8a3867298f687878787878760405161167d96959493929190613b86565b60405180910390a2600760008154809291906116989061367e565b9190505550505050505050565b600a6020528160005260406000206020528060005260406000206000915091509054906101000a900460ff1681565b6116e66116df6119c2565b8383611fb0565b5050565b600b6020528160005260406000206020528060005260406000206000915091509054906101000a900473ffffffffffffffffffffffffffffffffffffffff1681565b61173d6117376119c2565b83611aa1565b61177c576040517f08c379a000000000000000000000000000000000000000000000000000000000815260040161177390613738565b60405180910390fd5b6117888484848461211c565b50505050565b606061179982611977565b60006117a3612178565b905060008151116117c357604051806020016040528060008152506117ee565b806117cd8461218f565b6040516020016117de929190613c3f565b6040516020818303038152906040525b915050919050565b6000600560008473ffffffffffffffffffffffffffffffffffffffff1673ffffffffffffffffffffffffffffffffffffffff16815260200190815260200160002060008373ffffffffffffffffffffffffffffffffffffffff1673ffffffffffffffffffffffffffffffffffffffff16815260200190815260200160002060009054906101000a900460ff16905092915050565b611892611e2f565b600073ffffffffffffffffffffffffffffffffffffffff168173ffffffffffffffffffffffffffffffffffffffff1603611901576040517f08c379a00000000000000000000000000000000000000000000000000000000081526004016118f890613cd5565b60405180910390fd5b61190a81611eea565b50565b60007f01ffc9a7000000000000000000000000000000000000000000000000000000007bffffffffffffffffffffffffffffffffffffffffffffffffffffffff1916827bffffffffffffffffffffffffffffffffffffffffffffffffffffffff1916149050919050565b6119808161225d565b6119bf576040517f08c379a00000000000000000000000000000000000000000000000000000000081526004016119b690613856565b60405180910390fd5b50565b600033905090565b816004600083815260200190815260200160002060006101000a81548173ffffffffffffffffffffffffffffffffffffffff021916908373ffffffffffffffffffffffffffffffffffffffff160217905550808273ffffffffffffffffffffffffffffffffffffffff16611a3d836110b4565b73ffffffffffffffffffffffffffffffffffffffff167f8c5be1e5ebec7d5bd14f71427d1e84f3dd0314c0f7b2291e5b200ac8c7c3b92560405160405180910390a45050565b611a9d82826040518060200160405280600081525061229e565b5050565b600080611aad836110b4565b90508073ffffffffffffffffffffffffffffffffffffffff168473ffffffffffffffffffffffffffffffffffffffff161480611aef5750611aee81856117f6565b5b80611b2d57508373ffffffffffffffffffffffffffffffffffffffff16611b15846107e0565b73ffffffffffffffffffffffffffffffffffffffff16145b91505092915050565b8273ffffffffffffffffffffffffffffffffffffffff16611b56826110b4565b73ffffffffffffffffffffffffffffffffffffffff1614611bac576040517f08c379a0000000000000000000000000000000000000000000000000000000008152600401611ba390613d67565b60405180910390fd5b600073ffffffffffffffffffffffffffffffffffffffff168273ffffffffffffffffffffffffffffffffffffffff1603611c1b576040517f08c379a0000000000000000000000000000000000000000000000000000000008152600401611c1290613df9565b60405180910390fd5b611c2883838360016122f9565b8273ffffffffffffffffffffffffffffffffffffffff16611c48826110b4565b73ffffffffffffffffffffffffffffffffffffffff1614611c9e576040517f08c379a0000000000000000000000000000000000000000000000000000000008152600401611c9590613d67565b60405180910390fd5b6004600082815260200190815260200160002060006101000a81549073ffffffffffffffffffffffffffffffffffffffff02191690556001600360008573ffffffffffffffffffffffffffffffffffffffff1673ffffffffffffffffffffffffffffffffffffffff168152602001908152602001600020600082825403925050819055506001600360008473ffffffffffffffffffffffffffffffffffffffff1673ffffffffffffffffffffffffffffffffffffffff16815260200190815260200160002060008282540192505081905550816002600083815260200190815260200160002060006101000a81548173ffffffffffffffffffffffffffffffffffffffff021916908373ffffffffffffffffffffffffffffffffffffffff160217905550808273ffffffffffffffffffffffffffffffffffffffff168473ffffffffffffffffffffffffffffffffffffffff167fddf252ad1be2c89b69c2b068fc378daa952ba7f163c4a11628f55a4df523b3ef60405160405180910390a4611e2a83838360016122ff565b505050565b611e376119c2565b73ffffffffffffffffffffffffffffffffffffffff16611e556114a3565b73ffffffffffffffffffffffffffffffffffffffff1614611eab576040517f08c379a0000000000000000000000000000000000000000000000000000000008152600401611ea290613e65565b60405180910390fd5b565b60006002600083815260200190815260200160002060009054906101000a900473ffffffffffffffffffffffffffffffffffffffff169050919050565b6000600660009054906101000a900473ffffffffffffffffffffffffffffffffffffffff16905081600660006101000a81548173ffffffffffffffffffffffffffffffffffffffff021916908373ffffffffffffffffffffffffffffffffffffffff1602179055508173ffffffffffffffffffffffffffffffffffffffff168173ffffffffffffffffffffffffffffffffffffffff167f8be0079c531659141344cd1fd0a4f28419497f9722a3daafe3b4186f6b6457e060405160405180910390a35050565b8173ffffffffffffffffffffffffffffffffffffffff168373ffffffffffffffffffffffffffffffffffffffff160361201e576040517f08c379a000000000000000000000000000000000000000000000000000000000815260040161201590613ed1565b60405180910390fd5b80600560008573ffffffffffffffffffffffffffffffffffffffff1673ffffffffffffffffffffffffffffffffffffffff16815260200190815260200160002060008473ffffffffffffffffffffffffffffffffffffffff1673ffffffffffffffffffffffffffffffffffffffff16815260200190815260200160002060006101000a81548160ff0219169083151502179055508173ffffffffffffffffffffffffffffffffffffffff168373ffffffffffffffffffffffffffffffffffffffff167f17307eab39ab6107e8899845ad3d59bd9653f200f220920489ca2b5937696c318360405161210f9190612918565b60405180910390a3505050565b612127848484611b36565b61213384848484612305565b612172576040517f08c379a000000000000000000000000000000000000000000000000000000000815260040161216990613f63565b60405180910390fd5b50505050565b606060405180602001604052806000815250905090565b60606000600161219e8461248c565b01905060008167ffffffffffffffff8111156121bd576121bc612eaf565b5b6040519080825280601f01601f1916602001820160405280156121ef5781602001600182028036833780820191505090505b509050600082602001820190505b600115612252578080600190039150507f3031323334353637383961626364656600000000000000000000000000000000600a86061a8153600a858161224657612245613f83565b5b049450600085036121fd575b819350505050919050565b60008073ffffffffffffffffffffffffffffffffffffffff1661227f83611ead565b73ffffffffffffffffffffffffffffffffffffffff1614159050919050565b6122a883836125df565b6122b56000848484612305565b6122f4576040517f08c379a00000000000000000000000000000000000000000000000000000000081526004016122eb90613f63565b60405180910390fd5b505050565b50505050565b50505050565b60006123268473ffffffffffffffffffffffffffffffffffffffff166127fc565b1561247f578373ffffffffffffffffffffffffffffffffffffffff1663150b7a0261234f6119c2565b8786866040518563ffffffff1660e01b81526004016123719493929190614007565b6020604051808303816000875af19250505080156123ad57506040513d601f19601f820116820180604052508101906123aa9190614068565b60015b61242f573d80600081146123dd576040519150601f19603f3d011682016040523d82523d6000602084013e6123e2565b606091505b506000815103612427576040517f08c379a000000000000000000000000000000000000000000000000000000000815260040161241e90613f63565b60405180910390fd5b805181602001fd5b63150b7a0260e01b7bffffffffffffffffffffffffffffffffffffffffffffffffffffffff1916817bffffffffffffffffffffffffffffffffffffffffffffffffffffffff191614915050612484565b600190505b949350505050565b600080600090507a184f03e93ff9f4daa797ed6e38ed64bf6a1f01000000000000000083106124ea577a184f03e93ff9f4daa797ed6e38ed64bf6a1f01000000000000000083816124e0576124df613f83565b5b0492506040810190505b6d04ee2d6d415b85acef81000000008310612527576d04ee2d6d415b85acef8100000000838161251d5761251c613f83565b5b0492506020810190505b662386f26fc10000831061255657662386f26fc10000838161254c5761254b613f83565b5b0492506010810190505b6305f5e100831061257f576305f5e100838161257557612574613f83565b5b0492506008810190505b61271083106125a457612710838161259a57612599613f83565b5b0492506004810190505b606483106125c757606483816125bd576125bc613f83565b5b0492506002810190505b600a83106125d6576001810190505b80915050919050565b600073ffffffffffffffffffffffffffffffffffffffff168273ffffffffffffffffffffffffffffffffffffffff160361264e576040517f08c379a0000000000000000000000000000000000000000000000000000000008152600401612645906140e1565b60405180910390fd5b6126578161225d565b15612697576040517f08c379a000000000000000000000000000000000000000000000000000000000815260040161268e9061414d565b60405180910390fd5b6126a56000838360016122f9565b6126ae8161225d565b156126ee576040517f08c379a00000000000000000000000000000000000000000000000000000000081526004016126e59061414d565b60405180910390fd5b6001600360008473ffffffffffffffffffffffffffffffffffffffff1673ffffffffffffffffffffffffffffffffffffffff16815260200190815260200160002060008282540192505081905550816002600083815260200190815260200160002060006101000a81548173ffffffffffffffffffffffffffffffffffffffff021916908373ffffffffffffffffffffffffffffffffffffffff160217905550808273ffffffffffffffffffffffffffffffffffffffff16600073ffffffffffffffffffffffffffffffffffffffff167fddf252ad1be2c89b69c2b068fc378daa952ba7f163c4a11628f55a4df523b3ef60405160405180910390a46127f86000838360016122ff565b5050565b6000808273ffffffffffffffffffffffffffffffffffffffff163b119050919050565b60405180610100016040528060008152602001606081526020016000815260200160008152602001600081526020016060815260200160608152602001606081525090565b6000604051905090565b600080fd5b600080fd5b60007fffffffff0000000000000000000000000000000000000000000000000000000082169050919050565b6128ad81612878565b81146128b857600080fd5b50565b6000813590506128ca816128a4565b92915050565b6000602082840312156128e6576128e561286e565b5b60006128f4848285016128bb565b91505092915050565b60008115159050919050565b612912816128fd565b82525050565b600060208201905061292d6000830184612909565b92915050565b600081519050919050565b600082825260208201905092915050565b60005b8381101561296d578082015181840152602081019050612952565b60008484015250505050565b6000601f19601f8301169050919050565b600061299582612933565b61299f818561293e565b93506129af81856020860161294f565b6129b881612979565b840191505092915050565b600060208201905081810360008301526129dd818461298a565b905092915050565b6000819050919050565b6129f8816129e5565b8114612a0357600080fd5b50565b600081359050612a15816129ef565b92915050565b600060208284031215612a3157612a3061286e565b5b6000612a3f84828501612a06565b91505092915050565b600073ffffffffffffffffffffffffffffffffffffffff82169050919050565b6000612a7382612a48565b9050919050565b612a8381612a68565b82525050565b6000602082019050612a9e6000830184612a7a565b92915050565b612aad81612a68565b8114612ab857600080fd5b50565b600081359050612aca81612aa4565b92915050565b60008060408385031215612ae757612ae661286e565b5b6000612af585828601612abb565b9250506020612b0685828601612a06565b9150509250929050565b600081519050919050565b600082825260208201905092915050565b6000819050602082019050919050565b612b45816129e5565b82525050565b6000612b578383612b3c565b60208301905092915050565b6000602082019050919050565b6000612b7b82612b10565b612b858185612b1b565b9350612b9083612b2c565b8060005b83811015612bc1578151612ba88882612b4b565b9750612bb383612b63565b925050600181019050612b94565b5085935050505092915050565b60006020820190508181036000830152612be88184612b70565b905092915050565b612bf9816129e5565b82525050565b6000602082019050612c146000830184612bf0565b92915050565b60008060408385031215612c3157612c3061286e565b5b6000612c3f85828601612a06565b9250506020612c5085828601612a06565b9150509250929050565b600080600060608486031215612c7357612c7261286e565b5b6000612c8186828701612abb565b9350506020612c9286828701612abb565b9250506040612ca386828701612a06565b9150509250925092565b600061010082019050612cc3600083018b612bf0565b8181036020830152612cd5818a61298a565b9050612ce46040830189612bf0565b612cf16060830188612bf0565b612cfe6080830187612bf0565b81810360a0830152612d10818661298a565b905081810360c0830152612d24818561298a565b905081810360e0830152612d38818461298a565b90509998505050505050505050565b600060208284031215612d5d57612d5c61286e565b5b6000612d6b84828501612abb565b91505092915050565b600082825260208201905092915050565b6000612d9082612933565b612d9a8185612d74565b9350612daa81856020860161294f565b612db381612979565b840191505092915050565b600061010083016000830151612dd76000860182612b3c565b5060208301518482036020860152612def8282612d85565b9150506040830151612e046040860182612b3c565b506060830151612e176060860182612b3c565b506080830151612e2a6080860182612b3c565b5060a083015184820360a0860152612e428282612d85565b91505060c083015184820360c0860152612e5c8282612d85565b91505060e083015184820360e0860152612e768282612d85565b9150508091505092915050565b60006020820190508181036000830152612e9d8184612dbe565b905092915050565b600080fd5b600080fd5b7f4e487b7100000000000000000000000000000000000000000000000000000000600052604160045260246000fd5b612ee782612979565b810181811067ffffffffffffffff82111715612f0657612f05612eaf565b5b80604052505050565b6000612f19612864565b9050612f258282612ede565b919050565b600067ffffffffffffffff821115612f4557612f44612eaf565b5b612f4e82612979565b9050602081019050919050565b82818337600083830152505050565b6000612f7d612f7884612f2a565b612f0f565b905082815260208101848484011115612f9957612f98612eaa565b5b612fa4848285612f5b565b509392505050565b600082601f830112612fc157612fc0612ea5565b5b8135612fd1848260208601612f6a565b91505092915050565b60008060008060008060c08789031215612ff757612ff661286e565b5b600087013567ffffffffffffffff81111561301557613014612873565b5b61302189828a01612fac565b965050602061303289828a01612a06565b955050604061304389828a01612a06565b945050606087013567ffffffffffffffff81111561306457613063612873565b5b61307089828a01612fac565b935050608087013567ffffffffffffffff81111561309157613090612873565b5b61309d89828a01612fac565b92505060a087013567ffffffffffffffff8111156130be576130bd612873565b5b6130ca89828a01612fac565b9150509295509295509295565b600080604083850312156130ee576130ed61286e565b5b60006130fc85828601612a06565b925050602061310d85828601612abb565b9150509250929050565b613120816128fd565b811461312b57600080fd5b50565b60008135905061313d81613117565b92915050565b6000806040838503121561315a5761315961286e565b5b600061316885828601612abb565b92505060206131798582860161312e565b9150509250929050565b600067ffffffffffffffff82111561319e5761319d612eaf565b5b6131a782612979565b9050602081019050919050565b60006131c76131c284613183565b612f0f565b9050828152602081018484840111156131e3576131e2612eaa565b5b6131ee848285612f5b565b509392505050565b600082601f83011261320b5761320a612ea5565b5b813561321b8482602086016131b4565b91505092915050565b6000806000806080858703121561323e5761323d61286e565b5b600061324c87828801612abb565b945050602061325d87828801612abb565b935050604061326e87828801612a06565b925050606085013567ffffffffffffffff81111561328f5761328e612873565b5b61329b878288016131f6565b91505092959194509250565b600080604083850312156132be576132bd61286e565b5b60006132cc85828601612abb565b92505060206132dd85828601612abb565b9150509250929050565b7f4e487b7100000000000000000000000000000000000000000000000000000000600052602260045260246000fd5b6000600282049050600182168061332e57607f821691505b602082108103613341576133406132e7565b5b50919050565b7f4552433732313a20617070726f76616c20746f2063757272656e74206f776e6560008201527f7200000000000000000000000000000000000000000000000000000000000000602082015250565b60006133a360218361293e565b91506133ae82613347565b604082019050919050565b600060208201905081810360008301526133d281613396565b9050919050565b7f4552433732313a20617070726f76652063616c6c6572206973206e6f7420746f60008201527f6b656e206f776e6572206f7220617070726f76656420666f7220616c6c000000602082015250565b6000613435603d8361293e565b9150613440826133d9565b604082019050919050565b6000602082019050818103600083015261346481613428565b9050919050565b7f496e76616c6964206576656e7420494400000000000000000000000000000000600082015250565b60006134a160108361293e565b91506134ac8261346b565b602082019050919050565b600060208201905081810360008301526134d081613494565b9050919050565b7f496e73756666696369656e742045544800000000000000000000000000000000600082015250565b600061350d60108361293e565b9150613518826134d7565b602082019050919050565b6000602082019050818103600083015261353c81613500565b9050919050565b7f5365617420616c72656164792074616b656e0000000000000000000000000000600082015250565b600061357960128361293e565b915061358482613543565b602082019050919050565b600060208201905081810360008301526135a88161356c565b9050919050565b7f496e76616c69642073656174206e756d62657200000000000000000000000000600082015250565b60006135e560138361293e565b91506135f0826135af565b602082019050919050565b60006020820190508181036000830152613614816135d8565b9050919050565b7f4e487b7100000000000000000000000000000000000000000000000000000000600052601160045260246000fd5b6000613655826129e5565b9150613660836129e5565b92508282039050818111156136785761367761361b565b5b92915050565b6000613689826129e5565b91507fffffffffffffffffffffffffffffffffffffffffffffffffffffffffffffffff82036136bb576136ba61361b565b5b600182019050919050565b7f4552433732313a2063616c6c6572206973206e6f7420746f6b656e206f776e6560008201527f72206f7220617070726f76656400000000000000000000000000000000000000602082015250565b6000613722602d8361293e565b915061372d826136c6565b604082019050919050565b6000602082019050818103600083015261375181613715565b9050919050565b600081905092915050565b50565b6000613773600083613758565b915061377e82613763565b600082019050919050565b600061379482613766565b9150819050919050565b7f5769746864726177206661696c65640000000000000000000000000000000000600082015250565b60006137d4600f8361293e565b91506137df8261379e565b602082019050919050565b60006020820190508181036000830152613803816137c7565b9050919050565b7f4552433732313a20696e76616c696420746f6b656e2049440000000000000000600082015250565b600061384060188361293e565b915061384b8261380a565b602082019050919050565b6000602082019050818103600083015261386f81613833565b9050919050565b7f4552433732313a2061646472657373207a65726f206973206e6f74206120766160008201527f6c6964206f776e65720000000000000000000000000000000000000000000000602082015250565b60006138d260298361293e565b91506138dd82613876565b604082019050919050565b60006020820190508181036000830152613901816138c5565b9050919050565b60008190508160005260206000209050919050565b60006020601f8301049050919050565b600082821b905092915050565b60006008830261396a7fffffffffffffffffffffffffffffffffffffffffffffffffffffffffffffffff8261392d565b613974868361392d565b95508019841693508086168417925050509392505050565b6000819050919050565b60006139b16139ac6139a7846129e5565b61398c565b6129e5565b9050919050565b6000819050919050565b6139cb83613996565b6139df6139d7826139b8565b84845461393a565b825550505050565b600090565b6139f46139e7565b6139ff8184846139c2565b505050565b5b81811015613a2357613a186000826139ec565b600181019050613a05565b5050565b601f821115613a6857613a3981613908565b613a428461391d565b81016020851015613a51578190505b613a65613a5d8561391d565b830182613a04565b50505b505050565b600082821c905092915050565b6000613a8b60001984600802613a6d565b1980831691505092915050565b6000613aa48383613a7a565b9150826002028217905092915050565b613abd82612933565b67ffffffffffffffff811115613ad657613ad5612eaf565b5b613ae08254613316565b613aeb828285613a27565b600060209050601f831160018114613b1e5760008415613b0c578287015190505b613b168582613a98565b865550613b7e565b601f198416613b2c86613908565b60005b82811015613b5457848901518255600182019150602085019450602081019050613b2f565b86831015613b715784890151613b6d601f891682613a7a565b8355505b6001600288020188555050505b505050505050565b600060c0820190508181036000830152613ba0818961298a565b9050613baf6020830188612bf0565b613bbc6040830187612bf0565b8181036060830152613bce818661298a565b90508181036080830152613be2818561298a565b905081810360a0830152613bf6818461298a565b9050979650505050505050565b600081905092915050565b6000613c1982612933565b613c238185613c03565b9350613c3381856020860161294f565b80840191505092915050565b6000613c4b8285613c0e565b9150613c578284613c0e565b91508190509392505050565b7f4f776e61626c653a206e6577206f776e657220697320746865207a65726f206160008201527f6464726573730000000000000000000000000000000000000000000000000000602082015250565b6000613cbf60268361293e565b9150613cca82613c63565b604082019050919050565b60006020820190508181036000830152613cee81613cb2565b9050919050565b7f4552433732313a207472616e736665722066726f6d20696e636f72726563742060008201527f6f776e6572000000000000000000000000000000000000000000000000000000602082015250565b6000613d5160258361293e565b9150613d5c82613cf5565b604082019050919050565b60006020820190508181036000830152613d8081613d44565b9050919050565b7f4552433732313a207472616e7366657220746f20746865207a65726f2061646460008201527f7265737300000000000000000000000000000000000000000000000000000000602082015250565b6000613de360248361293e565b9150613dee82613d87565b604082019050919050565b60006020820190508181036000830152613e1281613dd6565b9050919050565b7f4f776e61626c653a2063616c6c6572206973206e6f7420746865206f776e6572600082015250565b6000613e4f60208361293e565b9150613e5a82613e19565b602082019050919050565b60006020820190508181036000830152613e7e81613e42565b9050919050565b7f4552433732313a20617070726f766520746f2063616c6c657200000000000000600082015250565b6000613ebb60198361293e565b9150613ec682613e85565b602082019050919050565b60006020820190508181036000830152613eea81613eae565b9050919050565b7f4552433732313a207472616e7366657220746f206e6f6e20455243373231526560008201527f63656976657220696d706c656d656e7465720000000000000000000000000000602082015250565b6000613f4d60328361293e565b9150613f5882613ef1565b604082019050919050565b60006020820190508181036000830152613f7c81613f40565b9050919050565b7f4e487b7100000000000000000000000000000000000000000000000000000000600052601260045260246000fd5b600081519050919050565b600082825260208201905092915050565b6000613fd982613fb2565b613fe38185613fbd565b9350613ff381856020860161294f565b613ffc81612979565b840191505092915050565b600060808201905061401c6000830187612a7a565b6140296020830186612a7a565b6140366040830185612bf0565b81810360608301526140488184613fce565b905095945050505050565b600081519050614062816128a4565b92915050565b60006020828403121561407e5761407d61286e565b5b600061408c84828501614053565b91505092915050565b7f4552433732313a206d696e7420746f20746865207a65726f2061646472657373600082015250565b60006140cb60208361293e565b91506140d682614095565b602082019050919050565b600060208201905081810360008301526140fa816140be565b9050919050565b7f4552433732313a20746f6b656e20616c7265616479206d696e74656400000000600082015250565b6000614137601c8361293e565b915061414282614101565b602082019050919050565b600060208201905081810360008301526141668161412a565b905091905056fea264697066735822122084aface9b95f3aa9f4f94688f86dc456c76788263b350582ee0f8dd2bd5a6fd364736f6c63430008120033",
  "linkReferences": {},
  "deployedLinkReferences": {}
}